:100000000C9463000C94C2040C949B040C948B001D
:100010000C948B000C948B000C948B000C948B0034
:100020000C948B000C948B000C948B000C948B0024
:100030000C948B000C948B000C948B000C948B0014
:100040000C9451040C948B000C948B000C948B003A
:100050000C948B000C948B000C948B000C948B00F4
:100060000C948B000C948B000000000023002600F1
:10007000290000000000240027002A0000000000E2
:10008000250028002B0004040404040404040202D4
:100090000202020203030303030301020408102007
:1000A0004080010204081020010204081020000012
:1000B0000008000201000003040700000000000027
:1000C00000007D06720711241FBECFEFD8E0DEBF0F
:1000D000CDBF11E0A0E0B1E0EAE3FDE102C0059090
:1000E0000D92A434B107D9F722E0A4E4B1E001C035
:1000F0001D92A134B207E1F710E0C2E6D0E004C0DF
:100100002197FE010E947E07C136D107C9F70E94E0
:10011000E9040C94900E0C940000CF92DF92EF92C1
:10012000FF920F931F93CF93DF936C017A018B01A2
:10013000C0E0D0E0CE15DF0589F0D8016D918D01CA
:10014000D601ED91FC910190F081E02DC601099559
:10015000892B11F47E0102C02196ECCFC701DF91FB
:10016000CF911F910F91FF90EF90DF90CF90089566
:1001700090E0FC01E255FF4F3491FC01E656FF4F41
:100180002491FC01EA57FF4FE491EE2309F43BC0B0
:10019000332339F1333091F038F43130A9F0323073
:1001A00001F584B58F7D12C0373091F03830A1F061
:1001B0003430B9F4809180008F7D03C0809180003D
:1001C0008F77809380000DC084B58F7784BD09C080
:1001D0008091B0008F7703C08091B0008F7D8093B5
:1001E000B000F0E0EE0FFF1FE458FF4FA591B4916F
:1001F0008FB7F894EC91611103C020952E2301C0B4
:100200002E2B2C938FBF0895CF93DF9390E0FC01AA
:10021000E656FF4F2491FC01EA57FF4F8491882353
:1002200061F190E0880F991FFC01EE58FF4FC591D6
:10023000D491FC01E458FF4FA591B491611109C01C
:100240009FB7F8948881209582238883EC912E2390
:100250000BC0623061F49FB7F8943881822F80958B
:1002600083238883EC912E2B2C939FBF06C08FB7DE
:10027000F894E8812E2B28838FBFDF91CF910895CA
:100280000895CF93DF93EC0160E08E810E94B80067
:1002900061E08E810E94B80060E08E810E94B8000B
:1002A0008BE891E00197F1F7DF91CF910895CF921C
:1002B000DF92EF92FF920F931F93CF93DF937C0116
:1002C0006C0187E0C80ED11CC0E0D0E0062F10E022
:1002D000B8010C2E02C0759567950A94E2F761701B
:1002E000F60181916F010E94B8002196C430D105BA
:1002F00079F7C701DF91CF911F910F91FF90EF9098
:10030000DF90CF900C944101CF92DF92EF92FF9259
:100310000F931F93CF93DF93EC01F62E642F8C8104
:100320000E94B8008D818F3F19F060E00E94B800F4
:100330008F850F2D10E084FF25C06E0187E0C80E69
:10034000D11CE12CF12CB8010E2C02C075956795DB
:100350000A94E2F76170F60181916F010E94B80082
:10036000FFEFEF1AFF0A88E0E816F10461F7CE010B
:10037000DF91CF911F910F91FF90EF90DF90CF9081
:100380000C944101B80184E0759567958A95E1F771
:10039000CE010E9457016F2DCE01DF91CF911F91A9
:1003A0000F91FF90EF90DF90CF900C94570141E0B8
:1003B0000E94840181E090E0089540E00C94840163
:1003C000EF92FF920F931F93CF93DF93EC01423094
:1003D00018F08F8588608F874B8B1C8A80E48D8B0B
:1003E0006E8B70E0605C7F4F6F8B61E08C810E9450
:1003F00004018D818F3F19F061E00E94040161E0EA
:100400008E810E9404017E0187E0E80EF11C00E06D
:1004100010E08F8584FD03C084E090E002C088E096
:1004200090E0081719074CF461E0F70181917F0112
:100430000E9404010F5F1F4FECCF8BE39DE00197FB
:10044000F1F760E08C810E94B80060E08E810E942C
:10045000B8008D818F3F19F060E00E94B8006F8571
:1004600064FD1DC063E0CE010E9457010BE416E459
:10047000C8010197F1F763E0CE010E945701C8015E
:100480000197F1F763E0CE010E94570183E592E006
:100490000197F1F762E0CE010E94570116C0606239
:1004A000CE010E94DD018BE496E40197F1F76F85A0
:1004B0006062CE010E94DD0183E592E00197F1F7D1
:1004C0006F856062CE010E94DD016F856062CE01A2
:1004D0000E94DD0184E0888B6CE0CE010E94DD018A
:1004E00061E0CE010E94DD018BE39FE10197F1F70E
:1004F00082E0898B66E0CE01DF91CF911F910F9151
:10050000FF90EF900C94DD01843008F083E090912F
:100510003802891710F08FEF890FE82FF0E0EB5DBC
:10052000FD4F6489606885E292E00C94DD01DC0196
:10053000ED91FD918081ED91FD919081ED91FD9185
:100540006C9163708E2309F064609F2309F06860EA
:10055000E4EBF2E0E60FF11D659565956D936D9105
:100560007D918D919D91099423C01AC012C016C02F
:1005700010C01EC009C014C013C006C019C009C0F5
:100580000DC007C00DC014C0625070408040904044
:100590000BC0615070408040904006C06E5F01C04B
:1005A0006F5F7F4F8F4F9F4F9E938E937E936E937F
:1005B000089580915601909157010C949702809173
:1005C0005401909155010C949702009769F0FC0139
:1005D00001900020E9F73197AF01481B590BBC018E
:1005E00085E292E00C948D0080E090E008950E94F6
:1005F000900AEF92FF920F931F93CF93DF93EC013A
:100600007B018A0188819981009729F02A813B81A9
:1006100024173507F8F4B8016F5F7F4F0E94C609B1
:10062000009759F0998388831B830A832C813D812D
:10063000232B81F4FC0110820DC0888199810097E1
:1006400011F00E942E09198218821D821C821B82C1
:100650001A8207C01D830C83B701888199810E948B
:10066000A70ACE01DF91CF911F910F91FF90EF90DC
:1006700008950F931F93CF93DF938091630182308E
:1006800030F4F89488E591E00E94970201C0F89454
:1006900080915F0190916001A0916101B091620130
:1006A00078949093530180935201BC01990F880B69
:1006B000990B0E94600D20E030E048EC53E40E946A
:1006C000F1079B01AC010E94850720E030E040E784
:1006D00052E40E949B0D0E94630870935101609345
:1006E0005001F89410925F01109260011092610124
:1006F000109262017894C0915001D0915101D7FDC0
:1007000007C0209751F042E050E06AE271E009C072
:1007100043E050E069E271E004C044E050E06DE283
:1007200071E084E691E00E94F902CE01D7FF03C098
:100730009195819591098093500190935101209159
:100740005201309153014091000150910101241751
:10075000350709F4A1C030930101209300019F9354
:100760008F9384E191E09F938F938AE491E09F932C
:100770008F930E94BD0A81E00E94840289E191E08A
:100780000E94E50281E00E9484028AE491E00E94D6
:10079000E50220916E0130916F0100916801109186
:1007A00069010F900F900F900F900F900F90C091D4
:1007B0006401D09165012017310711F580916A011C
:1007C00090916B01009711F02097B1F4209749F0B8
:1007D000232B09F461C0888190E09195819591095E
:1007E00058C0009709F458C0232B09F455C0FC01E8
:1007F0008081811105C050C0BE010E949E0A49C07F
:10080000209739F0A801BE018AE691E00E94F90222
:1008100014C080916A0190916B01009711F00E94C1
:100820002E0910926B0110926A0110926F011092C2
:100830006E0110926D0110926C01C0916801D0910F
:100840006901209719F41092440111C0C530D105F7
:1008500010F0C5E0D0E06091640170916501AE01D7
:1008600084E491E00E94AE0ACC5BDE4F188283E004
:100870000E94840289E191E00E94E50283E00E94E7
:10088000840284E491E0DF91CF911F910F910C9449
:10089000E502892B09F0B6CFDF91CF911F910F911F
:1008A00008951F920F920FB60F9211242F933F932A
:1008B0008F939F93AF93BF93809175019091760131
:1008C000A0917701B09178013091740123E0230F5A
:1008D0002D3720F40196A11DB11D05C026E8230F78
:1008E0000296A11DB11D2093740180937501909310
:1008F0007601A0937701B093780180917001909177
:100900007101A0917201B09173010196A11DB11DF9
:100910008093700190937101A0937201B093730161
:10092000BF91AF919F918F913F912F910F900FBEEB
:100930000F901F9018951F920F920FB60F921124CF
:100940002F933F934F935F936F937F938F939F93D7
:10095000AF93BF93EF93FF93E0910401F0910501F2
:100960000995FF91EF91BF91AF919F918F917F91E9
:100970006F915F914F913F912F910F900FBE0F900C
:100980001F9018951F920F920FB60F9211242F935C
:100990003F934F935F936F937F938F939F93AF9307
:1009A000BF93EF93FF93E0910201F091030109954A
:1009B000FF91EF91BF91AF919F918F917F916F9137
:1009C0005F914F913F912F910F900FBE0F901F900D
:1009D0001895CF93DF9300D000D000D0CDB7DEB70D
:1009E000789484B5826084BD84B5816084BD85B50A
:1009F000826085BD85B5816085BD80916E00816016
:100A000080936E00109281008091810082608093BB
:100A100081008091810081608093810080918000BD
:100A20008160809380008091B10084608093B100E8
:100A30008091B00081608093B00080917A008460E2
:100A400080937A0080917A00826080937A0080910E
:100A50007A00816080937A0080917A008068809328
:100A60007A001092C10044E064E185E292E00E94C5
:100A7000E00180E00E94840282E391E00E94E502AE
:100A800082E00E94840289E391E00E94E502809165
:100A90002302909124020A970CF050C0E1EAF1E0A1
:100AA00080E090E021913191232B29F001968A304A
:100AB0009105C1F743C0FC01EE0FFF1FEE0FFF1FB2
:100AC000EB54FE4F44EF51E060E070E0408351830F
:100AD00062837383FC01EE0FFF1FEF55FE4F29E386
:100AE00033E031832083FC01EE0FFF1FE352FE4F02
:100AF00011821082FC01EB5FFD4F21E020832FB7B4
:100B0000F894409175015091760160917701709150
:100B100078012FBF880F991F880F991FFC01E75894
:100B2000FE4F4083518362837383809123029091AF
:100B300024020196909324028093230201E010E0A6
:100B400020E0222E20E0322E8FB7F894C09075015D
:100B5000D0907601E0907701F09078018FBF89E71F
:100B600091E09A83898381EF91E09C838B839E83BC
:100B70008D8320E030E0ED81FE81178E168ECF014F
:100B800080559109DC018D919C91892B09F44BC012
:100B9000E981FA81408151816281738184AC95AC95
:100BA000A6ACB7AC26013701441A550A660A770A83
:100BB000481459046A047B04B0F1480D591D6A1D9C
:100BC0007B1D4083518362837383C9018B5F9D4F7B
:100BD000FC018081882339F18D819E814497DC015D
:100BE0004D915C914115510529F4ED81FE81178FDE
:100BF000068F19C0AD81BE818D919C91119784178C
:100C000095078CF45F961C930E935E970196119650
:100C10009C938E938417950734F0E2E0F0E05F96A2
:100C2000FC93EE935E972F5F3F4F89819A810496E4
:100C30009A838983AD81BE811296BE83AD832A30AB
:100C4000310509F098CF81EAE82E81E0F82E95EB86
:100C5000C92E91E0D92EA12CB12CEB81FC81868D7F
:100C6000978D8130910519F0029731F02CC0D70192
:100C7000ED91FC91099527C0D701ED91FC91099563
:100C800080912302909124020097E9F0F7012081DE
:100C90003181232BC1F011821082F501EB5FFD4FF2
:100CA0001082AB81BC815F961C921E925E97F6010A
:100CB00010821182128213821D921C9201979093CE
:100CC000240280932302FFEFAF1ABF0A82E0E80EEE
:100CD000F11C94E0C90ED11C8B819C8102969C83EF
:100CE0008B839AE0A916B10409F0B7CF211431041F
:100CF00009F42ACF0E94000027CFCF93DF931092F0
:100D00006B0110926A0110926D0110926C011092A9
:100D10006F0110926E0142E050E06AE271E08AE6F3
:100D200091E00E94F9021092650110926401109204
:100D3000670110926601109269011092680143E008
:100D400050E069E271E084E691E00E94F9021092BD
:100D500028021092270280E191E09093260280936E
:100D600025028CE0809329028FEF80932A028BE08A
:100D700080932B0287E080932C0286E080932D02E3
:100D800085E080932E0284E080932F02109230023F
:100D900010923102109232021092330210923402F9
:100DA00041E060E185E292E00E94E00162E083E0E0
:100DB0000E94040162E082E00E940401E9E8F0E0A0
:100DC000E491F0E0EE0FFF1FE859FF4FA591B491B9
:100DD000B0935901A0935801EDE9F0E0849180931C
:100DE0005C01E8E8F0E0E491F0E0EE0FFF1FE85965
:100DF000FF4FC591D491D0935B01C0935A01ECE9A8
:100E0000F0E0E491E0935D0110925F0110926001C7
:100E10001092610110926201EBE3FFE13197F1F76B
:100E2000EC91E82381E009F480E0288190915D0154
:100E3000922309F0826028E531E080935E013093CF
:100E400057012093560189ED92E09093050180931C
:100E5000040180916900837F846080936900E99A2E
:100E600081E08093630130935501209354018FED0D
:100E700092E09093030180930201809169008C7F3E
:100E8000816080936900E89A82E0809363018FB764
:100E9000F8944091750150917601609177017091BD
:100EA00078018FBFC5E0D2E0E1EAF1E029E731E067
:100EB000199211921192D9014D935D936D937D9387
:100EC0009D01CF01825B9F4FDC011D921C92B1E01E
:100ED000E53BFB0769F71092240210922302DF9191
:100EE000CF91089580916401909165010E942E092F
:100EF00080916A0190916B010C942E09EE0FFF1FF7
:100F00000590F491E02D09945058BB27AA270E9420
:100F10009C070C941F0E0E94110E38F00E94180EB0
:100F200020F039F49F3F19F426F40C940E0E0EF4C1
:100F3000E095E7FB0C94080EE92F0E94300E58F361
:100F4000BA17620773078407950720F079F4A6F5AE
:100F50000C94520E0EF4E0950B2EBA2FA02D0B011F
:100F6000B90190010C01CA01A0011124FF27591BEE
:100F700099F0593F50F4503E68F11A16F040A22FF4
:100F8000232F342F4427585FF3CF46953795279565
:100F9000A795F0405395C9F77EF41F16BA0B620B64
:100FA000730B840BBAF09150A1F0FF0FBB1F661FAB
:100FB000771F881FC2F70EC0BA0F621F731F841FEE
:100FC00048F4879577956795B795F7959E3F08F014
:100FD000B0CF9395880F08F09927EE0F97958795D6
:100FE00008950E9405080C941F0E0E94180E58F0D8
:100FF0000E94110E40F029F45F3F29F00C94080E76
:1010000051110C94530E0C940E0E0E94300E68F386
:101010009923B1F3552391F3951B550BBB27AA27B1
:1010200062177307840738F09F5F5F4F220F331FEB
:10103000441FAA1FA9F335D00E2E3AF0E0E832D0B3
:1010400091505040E695001CCAF72BD0FE2F29D0B6
:10105000660F771F881FBB1F261737074807AB0788
:10106000B0E809F0BB0B802DBF01FF2793585F4FFD
:101070003AF09E3F510578F00C94080E0C94530EF4
:101080005F3FE4F3983ED4F3869577956795B795DF
:10109000F7959F5FC9F7880F911D9695879597F9EA
:1010A0000895E1E0660F771F881FBB1F6217730763
:1010B0008407BA0720F0621B730B840BBA0BEE1F78
:1010C00088F7E09508950E946A086894B1110C941D
:1010D000530E08950E94380E88F09F5798F0B92F4C
:1010E0009927B751B0F0E1F0660F771F881F991F5D
:1010F0001AF0BA95C9F714C0B13091F00E94520E9F
:10110000B1E008950C94520E672F782F8827B85FAE
:1011100039F0B93FCCF3869577956795B395D9F7B4
:101120003EF490958095709561957F4F8F4F9F4FBE
:101130000895CF93DF938230910510F482E090E020
:10114000E0913F02F091400220E030E0C0E0D0E0CA
:10115000309711F14081518148175907C0F0481765
:10116000590761F482819381209719F09B838A83C8
:101170002BC09093400280933F0226C02115310579
:1011800019F04217530718F49A01BE01DF01EF016D
:101190000280F381E02DDCCF2115310509F1281BF8
:1011A000390B2430310590F412968D919C91139750
:1011B0006115710521F0FB019383828304C0909334
:1011C000400280933F02FD01329644C0FD01E20FD0
:1011D000F31F81939193225031092D933C933AC090
:1011E00020913D0230913E02232B41F420910801D1
:1011F0003091090130933E0220933D022091060177
:10120000309107012115310541F42DB73EB74091CA
:101210000A0150910B01241B350BE0913D02F09126
:101220003E02E217F307A0F42E1B3F0B28173907E5
:1012300078F0AC014E5F5F4F2417350748F04E0F32
:101240005F1F50933E0240933D028193919302C0F1
:10125000E0E0F0E0CF01DF91CF9108950F931F936D
:10126000CF93DF93009709F48CC0FC01329713826F
:10127000128200913F02109140020115110581F484
:1012800020813181820F931F20913D0230913E02D7
:101290002817390779F5F0933E02E0933D0271C0BB
:1012A000D80140E050E0AE17BF0750F412962D91E0
:1012B0003C911397AD012115310509F1D901F3CF07
:1012C0009D01DA013383228360817181860F971F2C
:1012D0008217930769F4EC0128813981260F371FA3
:1012E0002E5F3F4F318320838A819B81938382834A
:1012F000452B29F4F0934002E0933F0242C013963D
:10130000FC93EE931297ED01499159919E01240FA0
:10131000351FE217F30771F480819181840F951FC7
:10132000029611969C938E938281938113969C933F
:101330008E931297E0E0F0E0D80112968D919C9187
:101340001397009719F0F8018C01F6CF8D919C91BD
:1013500098012E5F3F4F820F931F20913D023091E5
:101360003E022817390769F4309729F41092400299
:1013700010923F0202C01382128210933E02009329
:101380003D02DF91CF911F910F910895A0E0B0E051
:10139000ECECF9E00C945D0EEC01009721F4CB012C
:1013A0000E949908B8C0FC01E60FF71F9C0122506B
:1013B0003109E217F30708F4ACC0D9010D911C9173
:1013C000119706171707B0F00530110508F49FC0F4
:1013D000C80104978617970708F499C002501109AD
:1013E000061B170B019311936D937C93CF010E9401
:1013F0002E098DC05B01A01AB10A4C01800E911E0E
:10140000A0913F02B091400240E050E0E12CF12C6D
:10141000109709F44AC0A815B905D1F56D907C90D4
:101420001197630182E0C80ED11CCA14DB0480F15D
:10143000A3014A195B096A0182E0C80ED11C129609
:10144000BC9012971396AC91B5E0CB16D10440F046
:10145000B282A38351834083D9016D937C930AC0E8
:101460000E5F1F4FC301800F911FF901918380838D
:10147000EB2DFA2FE114F10431F0D7011396FC9310
:10148000EE93129744C0F0934002E0933F023FC0B6
:101490008D919C9111974817590708F4AC017D0173
:1014A00012960D90BC91A02DB3CF80913D029091EA
:1014B0003E0288159905E1F446175707C8F4809154
:1014C000060190910701009741F48DB79EB74091B6
:1014D0000A0150910B01841B950BE817F907C8F41A
:1014E000F0933E02E0933D02F901718360830FC0E7
:1014F000CB010E9499087C01009759F0A801BE0118
:101500000E94950ACE010E942E09C70104C0CE0197
:1015100002C080E090E0CDB7DEB7EEE00C94790E2B
:1015200081E090E0F8940C94900EFB01DC0102C085
:1015300001900D9241505040D8F70895FB01DC0115
:101540008D91019080190110D9F3990B0895FB0139
:10155000DC0101900D920020E1F70895FB01DC0110
:101560004150504048F001900D920020C9F701C051
:101570001D9241505040E0F70895AEE0B0E0E3EC3A
:10158000FAE00C94670E0D891E8986E08C831A831D
:1015900009838FEF9FE79E838D83AE01475E5F4F88
:1015A0006F89788DCE0101960E94E00A2F813885DF
:1015B000F801E20FF31F10822E96E4E00C94830EE4
:1015C000ACE0B0E0E6EEFAE00C94590E7C016B0161
:1015D0008A01FC0117821682838181FFBDC1CE0181
:1015E00001964C01F7019381F60193FD859193FFDC
:1015F00081916F01882309F4ABC1853239F493FDE1
:10160000859193FF81916F01853229F4B70190E0B4
:101610000E94C80CE7CF512C312C20E02032A0F4DE
:101620008B3269F030F4803259F0833269F42061F2
:101630002CC08D3239F0803339F4216026C022600D
:10164000246023C0286021C027FD27C030ED380F5B
:101650003A3078F426FF06C0FAE05F9E300D112480
:10166000532E13C08AE0389E300D1124332E206291
:101670000CC08E3221F426FD6BC1206406C08C366E
:1016800011F4206802C0883641F4F60193FD85917B
:1016900093FF81916F018111C1CF982F9F7D955448
:1016A000933028F40C5F1F4FFFE3F9830DC083369E
:1016B00031F0833771F0833509F05BC022C0F80147
:1016C000808189830E5F1F4F44244394512C540121
:1016D00015C03801F2E06F0E711CF801A080B180D6
:1016E00026FF03C0652D70E002C06FEF7FEFC501DC
:1016F0002C870E94BD0C2C0183012C852F77222E74
:1017000017C03801F2E06F0E711CF801A080B180A3
:1017100026FF03C0652D70E002C06FEF7FEFC501AB
:101720002C870E94B20C2C012C852068222E83016C
:1017300023FC1BC0832D90E048165906B0F4B70176
:1017400080E290E00E94C80C3A94F4CFF50127FCA7
:10175000859127FE81915F01B70190E00E94C80C3E
:1017600031103A94F1E04F1A51084114510471F7C5
:10177000E5C0843611F0893639F5F80127FF07C036
:1017800060817181828193810C5F1F4F08C06081ED
:101790007181072E000C880B990B0E5F1F4F2F765F
:1017A000722E97FF09C090958095709561957F4F37
:1017B0008F4F9F4F2068722E2AE030E0A4010E94D4
:1017C000000DA82EA81844C0853729F42F7EB22E0C
:1017D0002AE030E025C0F22FF97FBF2E8F36C1F00E
:1017E00018F4883579F0B4C0803719F0883721F0C3
:1017F000AFC02F2F2061B22EB4FE0DC08B2D8460A0
:10180000B82E09C024FF0AC09F2F9660B92E06C0CB
:1018100028E030E005C020E130E002C020E132E005
:10182000F801B7FE07C060817181828193810C5FEE
:101830001F4F06C06081718180E090E00E5F1F4FF6
:10184000A4010E94000DA82EA818FB2DFF777F2E63
:1018500076FE0BC0372D3E7FA51450F474FE0AC0EF
:1018600072FC08C0372D3E7E05C0BA2C372D03C050
:10187000BA2C01C0B52C34FF0DC0FE01EA0DF11DDC
:101880008081803311F4397E09C032FF06C0B394E1
:10189000B39404C0832F867809F0B39433FD13C04A
:1018A00030FF06C05A2CB31418F4530C5B18B32C39
:1018B000B31468F4B70180E290E03C870E94C80C42
:1018C000B3943C85F5CFB31410F43B1801C0312C10
:1018D00034FF12C0B70180E390E03C870E94C80C3F
:1018E0003C8532FF17C031FD03C088E790E002C09D
:1018F00088E590E0B7010CC0832F867859F031FF5E
:1019000002C08BE201C080E237FD8DE2B70190E0BA
:101910000E94C80CA51438F4B70180E390E00E943F
:10192000C80C5A94F7CFAA94F401EA0DF11D8081F6
:10193000B70190E00E94C80CA110F5CF332009F444
:1019400051CEB70180E290E00E94C80C3A94F6CFE5
:10195000F7018681978102C08FEF9FEF2C96E2E11D
:101960000C94750EFC010590615070400110D8F781
:10197000809590958E0F9F1F0895FC0161507040D7
:1019800001900110D8F7809590958E0F9F1F0895B4
:101990000F931F93CF93DF93FB01238121FD03C09E
:1019A0008FEF9FEF28C022FF16C046815781248108
:1019B00035814217530744F4A081B1819D012F5F07
:1019C0003F4F318320838C93268137812F5F3F4F98
:1019D0003783268310C0EB01092F182F0084F1856F
:1019E000E02D0995892BE1F68E819F8101969F83D9
:1019F0008E83812F902FDF91CF911F910F910895AA
:101A0000FA01AA27283051F1203181F1E8946F932F
:101A10006E7F6E5F7F4F8F4F9F4FAF4FB1E03ED0D5
:101A2000B4E03CD0670F781F891F9A1FA11D680F73
:101A3000791F8A1F911DA11D6A0F711D811D911DA6
:101A4000A11D20D009F468943F912AE0269F11241B
:101A50003019305D3193DEF6CF010895462F47707F
:101A6000405D4193B3E00FD0C9F7F6CF462F4F70DA
:101A7000405D4A3318F0495D31FD4052419302D038
:101A8000A9F7EACFB4E0A6959795879577956795DE
:101A9000BA95C9F700976105710508959B01AC01DE
:101AA0000A2E06945795479537952795BA95C9F705
:101AB000620F731F841F951FA01D0895E89409C02D
:101AC00097FB3EF490958095709561957F4F8F4F71
:101AD0009F4F9923A9F0F92F96E9BB279395F69587
:101AE000879577956795B795F111F8CFFAF4BB0F05
:101AF00011F460FF1BC06F5F7F4F8F4F9F4F16C069
:101B0000882311F096E911C0772321F09EE8872FF2
:101B1000762F05C0662371F096E8862F70E060E0AE
:101B20002AF09A95660F771F881FDAF7880F969527
:101B3000879597F908950E94AE0D0C941F0E0E9490
:101B4000110E38F00E94180E20F0952311F00C941D
:101B5000080E0C940E0E11240C94530E0E94300E9D
:101B600070F3959FC1F3950F50E0551F629FF001F0
:101B7000729FBB27F00DB11D639FAA27F00DB11D09
:101B8000AA1F649F6627B00DA11D661F829F222792
:101B9000B00DA11D621F739FB00DA11D621F839F19
:101BA000A00D611D221F749F3327A00D611D231FEF
:101BB000849F600D211D822F762F6A2F11249F573D
:101BC00050409AF0F1F088234AF0EE0FFF1FBB1F40
:101BD000661F771F881F91505040A9F79E3F5105FF
:101BE00080F00C94080E0C94530E5F3FE4F3983E83
:101BF000D4F3869577956795B795F795E7959F5FA9
:101C0000C1F7FE2B880F911D9695879597F908953A
:101C100097F99F6780E870E060E008959FEF80EC9F
:101C2000089500240A941616170618060906089542
:101C300000240A9412161306140605060895092EA8
:101C40000394000C11F4882352F0BB0F40F4BF2B17
:101C500011F460FF04C06F5F7F4F8F4F9F4F089557
:101C600057FD9058440F551F59F05F3F71F047954D
:101C7000880F97FB991F61F09F3F79F08795089532
:101C8000121613061406551FF2CF4695F1DF08C051
:101C9000161617061806991FF1CF8695710561056E
:101CA00008940895E894BB2766277727CB0197F916
:101CB00008952F923F924F925F926F927F928F92F0
:101CC0009F92AF92BF92CF92DF92EF92FF920F93CB
:101CD0001F93CF93DF93CDB7DEB7CA1BDB0B0FB6D5
:101CE000F894DEBF0FBECDBF09942A883988488892
:101CF0005F846E847D848C849B84AA84B984C88428
:101D0000DF80EE80FD800C811B81AA81B981CE0F1E
:101D1000D11D0FB6F894DEBF0FBECDBFED01089503
:101D200010E0C2E6D0E004C0FE010E947E072196CA
:0A1D3000C336D107C9F7F894FFCFBE
:101D3A0019FC40014001000041028000000000003F
:101D4A00D7018D0025303664002020202020202055
:101D5A002020202020202020004343570049646C83
:101D6A00650053706565643A004469726563746915
:041D7A006F6E3A004E
:00000001FF
