:100000000C9462000C94A1040C947A040C948A0061
:100010000C948A000C948A000C948A000C948A0038
:100020000C948A000C948A000C948A000C948A0028
:100030000C948A000C948A000C948A000C948A0018
:100040000C9430040C948A000C94FE030C94D80396
:100050000C948A000C948A000C948A000C948A00F8
:100060000C948A000C948A000000000024002700F1
:100070002A0000000000250028002B0000000008D6
:10008000000201000003040700000000000000005F
:10009000010204081020408001020408102001021F
:1000A000040810200000000023002600290004049A
:1000B0000404040404040202020202020303030310
:1000C0000303C80411241FBECFEFD8E0DEBFCDBFAD
:1000D00011E0A0E0B1E0ECE8F3E102C005900D9280
:1000E000A434B107D9F722E0A4E4B1E001C01D9225
:1000F000A831B207E1F710E0C2E6D0E004C02197D2
:10010000FE010E94E106C136D107C9F70E94AE0583
:100110000C94C4090C940000CF92DF92EF92FF92EE
:100120000F931F93CF93DF936C017A018B01C0E093
:10013000D0E0CE15DF0589F0D8016D918D01D60193
:10014000ED91FC910190F081E02DC6010995892B7C
:1001500011F47E0102C02196ECCFC701DF91CF914F
:100160001F910F91FF90EF90DF90CF900895FC01C9
:10017000918D828D981761F0828DDF01A80FB11DDE
:100180005D968C91928D9F5F9F73928F90E0089502
:100190008FEF9FEF0895FC01918D828D981731F0BC
:1001A000828DE80FF11D858D90E008958FEF9FEF10
:1001B0000895FC01918D228D892F90E0805C9F4FE6
:1001C000821B91098F739927089583E591E00E941E
:1001D000D90021E0892B09F420E0822F0895FC0149
:1001E000848DDF01A80FB11DA35ABF4F2C91848DC0
:1001F00090E001968F739927848FA689B7892C93F5
:10020000A089B1898C9180648C93938D848D98138F
:1002100006C00288F389E02D80818F7D8083089558
:10022000EF92FF920F931F93CF93DF93EC0181E046
:10023000888F9B8D8C8D981305C0E889F989808102
:1002400085FD24C0F62E0B8D10E00F5F1F4F0F733E
:100250001127E02E8C8DE8120CC00FB607FCFACFE8
:10026000E889F989808185FFF5CFCE010E94EF00F2
:10027000F1CF8B8DFE01E80FF11DE35AFF4FF082A5
:100280000B8FEA89FB898081806207C0EE89FF8934
:100290006083E889F98980818064808381E090E0CF
:1002A000DF91CF911F910F91FF90EF900895CF9321
:1002B000DF93EC01888D8823C9F0EA89FB8980816E
:1002C00085FD05C0A889B9898C9186FD0FC00FB640
:1002D00007FCF5CF808185FFF2CFA889B9898C9181
:1002E00085FFEDCFCE010E94EF00E7CFDF91CF91E8
:1002F000089580E090E0892B29F00E94E5008111AB
:100300000C940000089590E0FC01E458FF4F3491F4
:10031000FC01E057FF4F2491FC01E255FF4FE491AF
:10032000EE2309F43BC0332339F1333091F038F434
:100330003130A9F0323001F584B58F7D12C03730ED
:1003400091F03830A1F03430B9F4809180008F7D85
:1003500003C0809180008F77809380000DC084B5AA
:100360008F7784BD09C08091B0008F7703C08091E2
:10037000B0008F7D8093B000F0E0EE0FFF1FEE58CD
:10038000FF4FA591B4918FB7F894EC91611103C020
:1003900020952E2301C02E2B2C938FBF0895CF9331
:1003A000DF9390E0FC01E057FF4F2491FC01E25500
:1003B000FF4F8491882361F190E0880F991FFC0121
:1003C000E859FF4FC591D491FC01EE58FF4FA5911C
:1003D000B491611109C09FB7F89488812095822358
:1003E0008883EC912E230BC0623061F49FB7F894A0
:1003F0003881822F809583238883EC912E2B2C9338
:100400009FBF06C08FB7F894E8812E2B28838FBF3B
:10041000DF91CF9108953FB7F89480914901909171
:100420004A01A0914B01B0914C0126B5A89B05C093
:100430002F3F19F00196A11DB11D3FBFBA2FA92F63
:10044000982F8827820F911DA11DB11DBC01CD01E0
:1004500042E0660F771F881F991F4A95D1F70895CC
:100460000895CF93DF93EC0160E08E810E948301B9
:1004700061E08E810E94830160E08E810E94830191
:100480008BE891E00197F1F7DF91CF910895CF923A
:10049000DF92EF92FF920F931F93CF93DF937C0134
:1004A0006C0187E0C80ED11CC0E0D0E0062F10E040
:1004B000B8010C2E02C0759567950A94E2F7617039
:1004C000F60181916F010E9483012196C430D1050C
:1004D00079F7C701DF91CF911F910F91FF90EF90B6
:1004E000DF90CF900C943102CF92DF92EF92FF9287
:1004F0000F931F93CF93DF93EC01F62E642F8C8123
:100500000E9483018D818F3F19F060E00E9483017A
:100510008F850F2D10E084FF25C06E0187E0C80E87
:10052000D11CE12CF12CB8010E2C02C075956795F9
:100530000A94E2F76170F60181916F010E948301D4
:10054000FFEFEF1AFF0A88E0E816F10461F7CE0129
:10055000DF91CF911F910F91FF90EF90DF90CF909F
:100560000C943102B80184E0759567958A95E1F79E
:10057000CE010E9447026F2DCE01DF91CF911F91D6
:100580000F91FF90EF90DF90CF900C94470241E0E5
:100590000E94740281E090E0089540E00C9474029F
:1005A000EF92FF920F931F93CF93DF93EC01623092
:1005B00018F08F8588608F876B8B1C8A80E48D8B09
:1005C00080E18E8B80E58F8B61E08C810E94CF0172
:1005D0008D818F3F19F061E00E94CF0161E08E8133
:1005E0000E94CF017E0187E0E80EF11C00E010E0E0
:1005F0008F8584FD03C084E090E002C088E090E035
:10060000081719074CF461E0F70181917F010E94FE
:10061000CF010F5F1F4FECCF8BE39DE00197F1F708
:1006200060E08C810E94830160E08E810E948301E2
:100630008D818F3F19F060E00E9483016F8564FD1A
:100640001DC063E0CE010E9447020BE416E4C8011E
:100650000197F1F763E0CE010E944702C8010197BC
:10066000F1F763E0CE010E94470283E592E0019733
:10067000F1F762E0CE010E94470216C06062CE012F
:100680000E94CD028BE496E40197F1F76F856062DA
:10069000CE010E94CD0283E592E00197F1F76F85CC
:1006A0006062CE010E94CD026F856062CE010E9421
:1006B000CD0284E0888B6CE0CE010E94CD0261E027
:1006C000CE010E94CD028BE39FE10197F1F782E01A
:1006D000898B66E0CE01DF91CF911F910F91FF9042
:1006E000EF900C94CD02DC01ED91FD918081ED91B4
:1006F000FD919081ED91FD916C9163708E2309F0D5
:1007000064609F2309F06860E0E9F3E0E60FF11D03
:10071000659565956D936D917D918D919D910994F0
:1007200023C01AC012C016C010C01EC009C014C019
:1007300013C006C019C009C00DC007C00DC014C049
:1007400062507040804090400BC0615070408040CB
:10075000904006C06E5F01C06F5F7F4F8F4F9F4F0D
:100760009E938E937E936E9308958091F201909163
:10077000F3010C9473038091F0019091F1010C94BA
:1007800073030E94E7066115710579F0FB01019082
:100790000020E9F73197AF01461B570BDC01ED91C3
:1007A000FC910280F381E02D099480E090E00895AF
:1007B0001F920F920FB60F9211242F933F934F93D6
:1007C0005F936F937F938F939F93AF93BF93EF93B9
:1007D000FF9383E591E00E94EF00FF91EF91BF91BD
:1007E000AF919F918F917F916F915F914F913F91C9
:1007F0002F910F900FBE0F901F9018951F920F9280
:100800000FB60F9211242F938F939F93EF93FF9323
:10081000E0916301F09164018081E0916901F091C0
:100820006A0182FD12C0908180916C018F5F8F738D
:1008300020916D01821751F0E0916C01F0E0ED5ACA
:10084000FE4F958F80936C0101C08081FF91EF91E5
:100850009F918F912F910F900FBE0F901F90189521
:100860001F920F920FB60F9211242F933F938F93E5
:100870009F93AF93BF938091450190914601A091C2
:100880004701B09148013091440123E0230F2D37F7
:1008900020F40196A11DB11D05C026E8230F029684
:1008A000A11DB11D20934401809345019093460101
:1008B000A0934701B09348018091490190914A016A
:1008C000A0914B01B0914C010196A11DB11D8093E7
:1008D000490190934A01A0934B01B0934C01BF9101
:1008E000AF919F918F913F912F910F900FBE0F90DD
:1008F0001F9018951F920F920FB60F9211242F93ED
:100900003F934F935F936F937F938F939F93AF9397
:10091000BF93EF93FF93E0910401F09105010995D6
:10092000FF91EF91BF91AF919F918F917F916F91C7
:100930005F914F913F912F910F900FBE0F901F909D
:1009400018951F920F920FB60F9211242F933F9379
:100950004F935F936F937F938F939F93AF93BF93C7
:10096000EF93FF93E0910201F09103010995FF914C
:10097000EF91BF91AF919F918F917F916F915F9117
:100980004F913F912F910F900FBE0F901F90189590
:10099000CF93DF93109256011092550188EE93E0A9
:1009A000A0E0B0E08093570190935801A0935901C3
:1009B000B0935A018AE091E09093540180935301DF
:1009C00085EC90E09093600180935F0184EC90E06F
:1009D000909362018093610180EC90E090936401B8
:1009E0008093630181EC90E09093660180936501B0
:1009F00082EC90E0909368018093670186EC90E030
:100A000090936A018093690110926C0110926D01BC
:100A100010926E0110926F01109203021092020266
:100A20008AE191E090930102809300028CE0809330
:100A300004028FEF809305028BE08093060287E02B
:100A40008093070286E08093080285E08093090284
:100A500084E080930A0210920B0210920C02109212
:100A60000D0210920E0210920F0261E080E092E0FF
:100A70000E94D00262E083E00E94CF0162E082E047
:100A80000E94CF01E1EBF0E0E491F0E0EE0FFF1FF8
:100A9000EC55FF4FA591B491B093F501A093F401EB
:100AA000E3E9F0E084918093F801E0EBF0E0E49179
:100AB000F0E0EE0FFF1FEC55FF4FC591D491D0939E
:100AC000F701C093F601E2E9F0E0E491E093F90167
:100AD0001092FB011092FC011092FD011092FE0198
:100AE000EBE3FFE13197F1F7EC91E82381E009F4C2
:100AF00080E028819091F901922309F0826024EF2F
:100B000031E08093FA013093F3012093F20185EBF9
:100B100093E0909305018093040180916900837FA5
:100B2000846080936900E99A81E08093FF013093AB
:100B3000F1012093F0018BEB93E0909303018093FC
:100B40000201809169008C7F816080936900E89A3E
:100B500082E08093FF01DF91CF910895789484B56E
:100B6000826084BD84B5816084BD85B5826085BDA9
:100B700085B5816085BD80916E00816080936E0037
:100B80001092810080918100826080938100809129
:100B900081008160809381008091800081608093DA
:100BA00080008091B10084608093B1008091B0009A
:100BB00081608093B00080917A00846080937A0095
:100BC00080917A00826080937A0080917A008160BF
:100BD00080937A0080917A00806880937A001092E6
:100BE000C100E0916301F091640182E08083E091B3
:100BF0005F01F09160011082E0916101F09162016A
:100C00008FEC808310926B01E0916701F091680195
:100C100086E08083E0916501F091660180818061CA
:100C20008083E0916501F091660180818860808316
:100C3000E0916501F0916601808180688083E09198
:100C40006501F091660180818F7D808362E080E0A4
:100C500092E00E94D002E1E0809113028111E0E075
:100C6000E195F0E0E050FE4F6489606880E092E03A
:100C70000E94CD026EE171E080E092E00E94C30329
:100C8000CDE2D1E00DE411E08091FF01823030F43B
:100C9000F89484EF91E00E94730301C0F8942091CE
:100CA000FB013091FC017894C901883E910524F440
:100CB00089314FEF940754F4F8941092FB0110928D
:100CC000FC011092FD011092FE0178944091000108
:100CD000509101018417950709F470C03093010108
:100CE000209300013F932F93DF93CF931F930F9394
:100CF0000E94EC066DE471E083E591E00E94C3037D
:100D000062E371E083E591E00E94C303E091130286
:100D10000F900F900F900F900F900F90E23010F403
:100D2000E15001C0E1E0F0E0E050FE4F648960680E
:100D300080E092E00E94CD0265E371E080E092E005
:100D40000E94C303E0911302E23010F4E15001C0AD
:100D5000E1E0F0E0E050FE4F6489606880E092E0FE
:100D60000E94CD026DE471E080E092E00E94C30336
:100D70000E940B024B015C0182E3C82ED12CE12CB6
:100D8000F12C0E940B02DC01CB0188199909AA09F8
:100D9000BB09883E9340A105B10558F041E0C41A53
:100DA000D108E108F10888EE880E83E0981EA11CA6
:100DB000B11CC114D104E104F10419F70E947901B6
:100DC00063CFEE0FFF1F0590F491E02D099481E0B1
:100DD00090E0F8940C94C409AEE0B0E0E2EFF6E0E5
:100DE0000C949B090D891E8986E08C831A830983E4
:100DF0008FEF9FE79E838D83AE01475E5F4F6F89C4
:100E0000788DCE0101960E940F072F813885F80159
:100E1000E20FF31F10822E96E4E00C94B709ACE0C9
:100E2000B0E0E5E1F7E00C948D097C016B018A01EB
:100E3000FC0117821682838181FFBDC1CE0101961C
:100E40004C01F7019381F60193FD859193FF819108
:100E50006F01882309F4ABC1853239F493FD859184
:100E600093FF81916F01853229F4B70190E00E94D0
:100E7000F708E7CF512C312C20E02032A0F48B3240
:100E800069F030F4803259F0833269F420612CC06B
:100E90008D3239F0803339F4216026C0226024601D
:100EA00023C0286021C027FD27C030ED380F3A301D
:100EB00078F426FF06C0FAE05F9E300D1124532E11
:100EC00013C08AE0389E300D1124332E20620CC0EE
:100ED0008E3221F426FD6BC1206406C08C3611F4DD
:100EE000206802C0883641F4F60193FD859193FF96
:100EF00081916F018111C1CF982F9F7D95549330BF
:100F000028F40C5F1F4FFFE3F9830DC0833631F0E7
:100F1000833771F0833509F05BC022C0F80180810E
:100F200089830E5F1F4F44244394512C540115C0F4
:100F30003801F2E06F0E711CF801A080B18026FF2D
:100F400003C0652D70E002C06FEF7FEFC5012C87F5
:100F50000E94EC082C0183012C852F77222E17C0CC
:100F60003801F2E06F0E711CF801A080B18026FFFD
:100F700003C0652D70E002C06FEF7FEFC5012C87C5
:100F80000E94E1082C012C852068222E830123FC7D
:100F90001BC0832D90E048165906B0F4B70180E2DB
:100FA00090E00E94F7083A94F4CFF50127FC859170
:100FB00027FE81915F01B70190E00E94F708311090
:100FC0003A94F1E04F1A51084114510471F7E5C009
:100FD000843611F0893639F5F80127FF07C06081A2
:100FE0007181828193810C5F1F4F08C06081718184
:100FF000072E000C880B990B0E5F1F4F2F76722E59
:1010000097FF09C090958095709561957F4F8F4FA0
:101010009F4F2068722E2AE030E0A4010E942F0921
:10102000A82EA81844C0853729F42F7EB22E2AE0B6
:1010300030E025C0F22FF97FBF2E8F36C1F018F4B3
:10104000883579F0B4C0803719F0883721F0AFC007
:101050002F2F2061B22EB4FE0DC08B2D8460B82ED0
:1010600009C024FF0AC09F2F9660B92E06C028E051
:1010700030E005C020E130E002C020E132E0F801BC
:10108000B7FE07C060817181828193810C5F1F4F21
:1010900006C06081718180E090E00E5F1F4FA40167
:1010A0000E942F09A82EA818FB2DFF777F2E76FE11
:1010B0000BC0372D3E7FA51450F474FE0AC072FC9D
:1010C00008C0372D3E7E05C0BA2C372D03C0BA2C80
:1010D00001C0B52C34FF0DC0FE01EA0DF11D808169
:1010E000803311F4397E09C032FF06C0B394B39443
:1010F00004C0832F867809F0B39433FD13C030FF0A
:1011000006C05A2CB31418F4530C5B18B32CB31448
:1011100068F4B70180E290E03C870E94F708B3943E
:101120003C85F5CFB31410F43B1801C0312C34FFCB
:1011300012C0B70180E390E03C870E94F7083C852D
:1011400032FF17C031FD03C088E790E002C088E598
:1011500090E0B7010CC0832F867859F031FF02C0B0
:101160008BE201C080E237FD8DE2B70190E00E9482
:10117000F708A51438F4B70180E390E00E94F7085F
:101180005A94F7CFAA94F401EA0DF11D8081B701BA
:1011900090E00E94F708A110F5CF332009F451CE5A
:1011A000B70180E290E00E94F7083A94F6CFF70189
:1011B0008681978102C08FEF9FEF2C96E2E10C941D
:1011C000A909FC010590615070400110D8F7809585
:1011D00090958E0F9F1F0895FC0161507040019003
:1011E0000110D8F7809590958E0F9F1F08950F934B
:1011F0001F93CF93DF93FB01238121FD03C08FEF6A
:101200009FEF28C022FF16C0468157812481358177
:101210004217530744F4A081B1819D012F5F3F4FD6
:10122000318320838C93268137812F5F3F4F378313
:10123000268310C0EB01092F182F0084F185E02DC3
:101240000995892BE1F68E819F8101969F838E837C
:10125000812F902FDF91CF911F910F910895FA0167
:10126000AA27283051F1203181F1E8946F936E7FE5
:101270006E5F7F4F8F4F9F4FAF4FB1E03ED0B4E0D6
:101280003CD0670F781F891F9A1FA11D680F791F17
:101290008A1F911DA11D6A0F711D811D911DA11D28
:1012A00020D009F468943F912AE0269F1124301938
:1012B000305D3193DEF6CF010895462F4770405DD3
:1012C0004193B3E00FD0C9F7F6CF462F4F70405D82
:1012D0004A3318F0495D31FD4052419302D0A9F7DD
:1012E000EACFB4E0A6959795879577956795BA95D7
:1012F000C9F700976105710508959B01AC010A2E9D
:1013000006945795479537952795BA95C9F7620F73
:10131000731F841F951FA01D08952F923F924F9217
:101320005F926F927F928F929F92AF92BF92CF9275
:10133000DF92EF92FF920F931F93CF93DF93CDB77E
:10134000DEB7CA1BDB0B0FB6F894DEBF0FBECDBFF6
:1013500009942A88398848885F846E847D848C84C7
:101360009B84AA84B984C884DF80EE80FD800C81D0
:101370001B81AA81B981CE0FD11D0FB6F894DEBFB3
:0C1380000FBECDBFED010895F894FFCF23
:10138C0019FC300230020000000010018C00D90062
:10139C00B700CB00570100000000C7028C00456E5F
:1013AC00636F64657220436F756E743A0025303438
:1013BC0064000D0A00202020202020202020202046
:0413CC0020200000DD
:00000001FF
